{
  "_format": "hh-sol-artifact-1",
  "contractName": "Factory",
  "sourceName": "contracts/Factory.sol",
  "abi": [
    {
      "inputs": [
        {
          "internalType": "uint256",
          "name": "_fee",
          "type": "uint256"
        }
      ],
      "stateMutability": "nonpayable",
      "type": "constructor"
    },
    {
      "anonymous": false,
      "inputs": [
        {
          "indexed": true,
          "internalType": "address",
          "name": "token",
          "type": "address"
        },
        {
          "indexed": false,
          "internalType": "uint256",
          "name": "amount",
          "type": "uint256"
        }
      ],
      "name": "Buy",
      "type": "event"
    },
    {
      "anonymous": false,
      "inputs": [
        {
          "indexed": true,
          "internalType": "address",
          "name": "token",
          "type": "address"
        }
      ],
      "name": "Created",
      "type": "event"
    },
    {
      "inputs": [],
      "name": "TARGET",
      "outputs": [
        {
          "internalType": "uint256",
          "name": "",
          "type": "uint256"
        }
      ],
      "stateMutability": "view",
      "type": "function"
    },
    {
      "inputs": [],
      "name": "TOKEN_LIMIT",
      "outputs": [
        {
          "internalType": "uint256",
          "name": "",
          "type": "uint256"
        }
      ],
      "stateMutability": "view",
      "type": "function"
    },
    {
      "inputs": [
        {
          "internalType": "address",
          "name": "_token",
          "type": "address"
        },
        {
          "internalType": "uint256",
          "name": "_amount",
          "type": "uint256"
        }
      ],
      "name": "buy",
      "outputs": [],
      "stateMutability": "payable",
      "type": "function"
    },
    {
      "inputs": [
        {
          "internalType": "string",
          "name": "_name",
          "type": "string"
        },
        {
          "internalType": "string",
          "name": "_symbol",
          "type": "string"
        }
      ],
      "name": "create",
      "outputs": [],
      "stateMutability": "payable",
      "type": "function"
    },
    {
      "inputs": [
        {
          "internalType": "address",
          "name": "_token",
          "type": "address"
        }
      ],
      "name": "deposit",
      "outputs": [],
      "stateMutability": "nonpayable",
      "type": "function"
    },
    {
      "inputs": [],
      "name": "fee",
      "outputs": [
        {
          "internalType": "uint256",
          "name": "",
          "type": "uint256"
        }
      ],
      "stateMutability": "view",
      "type": "function"
    },
    {
      "inputs": [
        {
          "internalType": "uint256",
          "name": "_sold",
          "type": "uint256"
        }
      ],
      "name": "getCost",
      "outputs": [
        {
          "internalType": "uint256",
          "name": "",
          "type": "uint256"
        }
      ],
      "stateMutability": "pure",
      "type": "function"
    },
    {
      "inputs": [
        {
          "internalType": "uint256",
          "name": "_index",
          "type": "uint256"
        }
      ],
      "name": "getTokenSale",
      "outputs": [
        {
          "components": [
            {
              "internalType": "address",
              "name": "token",
              "type": "address"
            },
            {
              "internalType": "string",
              "name": "name",
              "type": "string"
            },
            {
              "internalType": "address",
              "name": "creator",
              "type": "address"
            },
            {
              "internalType": "uint256",
              "name": "sold",
              "type": "uint256"
            },
            {
              "internalType": "uint256",
              "name": "raised",
              "type": "uint256"
            },
            {
              "internalType": "bool",
              "name": "isOpen",
              "type": "bool"
            }
          ],
          "internalType": "struct Factory.TokenSale",
          "name": "",
          "type": "tuple"
        }
      ],
      "stateMutability": "view",
      "type": "function"
    },
    {
      "inputs": [],
      "name": "owner",
      "outputs": [
        {
          "internalType": "address",
          "name": "",
          "type": "address"
        }
      ],
      "stateMutability": "view",
      "type": "function"
    },
    {
      "inputs": [
        {
          "internalType": "address",
          "name": "",
          "type": "address"
        }
      ],
      "name": "tokenToSale",
      "outputs": [
        {
          "internalType": "address",
          "name": "token",
          "type": "address"
        },
        {
          "internalType": "string",
          "name": "name",
          "type": "string"
        },
        {
          "internalType": "address",
          "name": "creator",
          "type": "address"
        },
        {
          "internalType": "uint256",
          "name": "sold",
          "type": "uint256"
        },
        {
          "internalType": "uint256",
          "name": "raised",
          "type": "uint256"
        },
        {
          "internalType": "bool",
          "name": "isOpen",
          "type": "bool"
        }
      ],
      "stateMutability": "view",
      "type": "function"
    },
    {
      "inputs": [
        {
          "internalType": "uint256",
          "name": "",
          "type": "uint256"
        }
      ],
      "name": "tokens",
      "outputs": [
        {
          "internalType": "address",
          "name": "",
          "type": "address"
        }
      ],
      "stateMutability": "view",
      "type": "function"
    },
    {
      "inputs": [],
      "name": "totalTokens",
      "outputs": [
        {
          "internalType": "uint256",
          "name": "",
          "type": "uint256"
        }
      ],
      "stateMutability": "view",
      "type": "function"
    },
    {
      "inputs": [
        {
          "internalType": "uint256",
          "name": "_amount",
          "type": "uint256"
        }
      ],
      "name": "withdraw",
      "outputs": [],
      "stateMutability": "nonpayable",
      "type": "function"
    }
  ],
  "bytecode": "0x60a06040523480156200001157600080fd5b5060405162003ef938038062003ef98339818101604052810190620000379190620000c6565b8060808181525050336000806101000a81548173ffffffffffffffffffffffffffffffffffffffff021916908373ffffffffffffffffffffffffffffffffffffffff16021790555050620000f8565b600080fd5b6000819050919050565b620000a0816200008b565b8114620000ac57600080fd5b50565b600081519050620000c08162000095565b92915050565b600060208284031215620000df57620000de62000086565b5b6000620000ef84828501620000af565b91505092915050565b608051613dde6200011b6000396000818161038a0152610f070152613dde6000f3fe608060405260043610620000d45760003560e01c80637e1c0c09116200008b578063cc1f2afa1162000061578063cc1f2afa14620002cc578063cce7ec1314620002fc578063ddca3f43146200031c578063f340fa01146200034c57620000d4565b80637e1c0c0914620002235780638da5cb5b14620002535780639c0ad5ed146200028357620000d4565b8063031bd4c414620000d9578063198e2b8a14620001095780631fbc147b14620001295780632e1a7d4d146200016d5780634f64b2be146200019b5780635a4dd47d14620001df575b600080fd5b348015620000e657600080fd5b50620000f16200037a565b60405162000100919062001393565b60405180910390f35b62000127600480360381019062000121919062001526565b62000388565b005b3480156200013657600080fd5b506200015560048036038101906200014f9190620015dc565b62000680565b6040516200016491906200179f565b60405180910390f35b3480156200017a57600080fd5b50620001996004803603810190620001939190620015dc565b62000891565b005b348015620001a857600080fd5b50620001c76004803603810190620001c19190620015dc565b620009fa565b604051620001d69190620017d4565b60405180910390f35b348015620001ec57600080fd5b506200020b6004803603810190620002059190620015dc565b62000a3a565b6040516200021a919062001393565b60405180910390f35b3480156200023057600080fd5b506200023b62000a98565b6040516200024a919062001393565b60405180910390f35b3480156200026057600080fd5b506200026b62000a9e565b6040516200027a9190620017d4565b60405180910390f35b3480156200029057600080fd5b50620002af6004803603810190620002a9919062001822565b62000ac2565b604051620002c396959493929190620018b7565b60405180910390f35b348015620002d957600080fd5b50620002e462000bdb565b604051620002f3919062001393565b60405180910390f35b6200031a60048036038101906200031491906200192b565b62000be7565b005b3480156200032957600080fd5b506200033462000f05565b60405162000343919062001393565b60405180910390f35b3480156200035957600080fd5b5062000378600480360381019062000372919062001822565b62000f29565b005b6969e10de76676d080000081565b7f0000000000000000000000000000000000000000000000000000000000000000341015620003ee576040517f08c379a0000000000000000000000000000000000000000000000000000000008152600401620003e590620019c2565b60405180910390fd5b600033838369d3c21bcecceda10000006040516200040c9062001306565b6200041b949392919062001a31565b604051809103906000f08015801562000438573d6000803e3d6000fd5b5090506002819080600181540180825580915050600190039060005260206000200160009091909190916101000a81548173ffffffffffffffffffffffffffffffffffffffff021916908373ffffffffffffffffffffffffffffffffffffffff16021790555060016000815480929190620004b39062001abb565b919050555060006040518060c001604052808373ffffffffffffffffffffffffffffffffffffffff1681526020018581526020013373ffffffffffffffffffffffffffffffffffffffff168152602001600081526020016000815260200160011515815250905080600360008473ffffffffffffffffffffffffffffffffffffffff1673ffffffffffffffffffffffffffffffffffffffff16815260200190815260200160002060008201518160000160006101000a81548173ffffffffffffffffffffffffffffffffffffffff021916908373ffffffffffffffffffffffffffffffffffffffff1602179055506020820151816001019081620005b8919062001d34565b5060408201518160020160006101000a81548173ffffffffffffffffffffffffffffffffffffffff021916908373ffffffffffffffffffffffffffffffffffffffff160217905550606082015181600301556080820151816004015560a08201518160050160006101000a81548160ff0219169083151502179055509050508173ffffffffffffffffffffffffffffffffffffffff167f1449abf21e49fd025f33495e77f7b1461caefdd3d4bb646424a3f445c4576a5b60405160405180910390a250505050565b6200068a62001314565b6003600060028481548110620006a557620006a462001e1b565b5b9060005260206000200160009054906101000a900473ffffffffffffffffffffffffffffffffffffffff1673ffffffffffffffffffffffffffffffffffffffff1673ffffffffffffffffffffffffffffffffffffffff1681526020019081526020016000206040518060c00160405290816000820160009054906101000a900473ffffffffffffffffffffffffffffffffffffffff1673ffffffffffffffffffffffffffffffffffffffff1673ffffffffffffffffffffffffffffffffffffffff1681526020016001820180546200077d9062001b37565b80601f0160208091040260200160405190810160405280929190818152602001828054620007ab9062001b37565b8015620007fc5780601f10620007d057610100808354040283529160200191620007fc565b820191906000526020600020905b815481529060010190602001808311620007de57829003601f168201915b505050505081526020016002820160009054906101000a900473ffffffffffffffffffffffffffffffffffffffff1673ffffffffffffffffffffffffffffffffffffffff1673ffffffffffffffffffffffffffffffffffffffff16815260200160038201548152602001600482015481526020016005820160009054906101000a900460ff1615151515815250509050919050565b60008054906101000a900473ffffffffffffffffffffffffffffffffffffffff1673ffffffffffffffffffffffffffffffffffffffff163373ffffffffffffffffffffffffffffffffffffffff161462000922576040517f08c379a0000000000000000000000000000000000000000000000000000000008152600401620009199062001e9a565b60405180910390fd5b60008060009054906101000a900473ffffffffffffffffffffffffffffffffffffffff1673ffffffffffffffffffffffffffffffffffffffff16826040516200096b9062001ef1565b60006040518083038185875af1925050503d8060008114620009aa576040519150601f19603f3d011682016040523d82523d6000602084013e620009af565b606091505b5050905080620009f6576040517f08c379a0000000000000000000000000000000000000000000000000000000008152600401620009ed9062001f58565b60405180910390fd5b5050565b6002818154811062000a0b57600080fd5b906000526020600020016000915054906101000a900473ffffffffffffffffffffffffffffffffffffffff1681565b600080655af3107a400090506000655af3107a40009050600069021e19e0c9bab24000009050600083828762000a71919062001fa9565b8462000a7e919062001fe1565b62000a8a91906200202c565b905080945050505050919050565b60015481565b60008054906101000a900473ffffffffffffffffffffffffffffffffffffffff1681565b60036020528060005260406000206000915090508060000160009054906101000a900473ffffffffffffffffffffffffffffffffffffffff169080600101805462000b0d9062001b37565b80601f016020809104026020016040519081016040528092919081815260200182805462000b3b9062001b37565b801562000b8c5780601f1062000b605761010080835404028352916020019162000b8c565b820191906000526020600020905b81548152906001019060200180831162000b6e57829003601f168201915b5050505050908060020160009054906101000a900473ffffffffffffffffffffffffffffffffffffffff16908060030154908060040154908060050160009054906101000a900460ff16905086565b6729a2241af62c000081565b6000600360008473ffffffffffffffffffffffffffffffffffffffff1673ffffffffffffffffffffffffffffffffffffffff1681526020019081526020016000209050600115158160050160009054906101000a900460ff1615151462000c85576040517f08c379a000000000000000000000000000000000000000000000000000000000815260040162000c7c90620020b7565b60405180910390fd5b66038d7ea4c6800082101562000cd2576040517f08c379a000000000000000000000000000000000000000000000000000000000815260040162000cc99062002129565b60405180910390fd5b69021e19e0c9bab240000082111562000d22576040517f08c379a000000000000000000000000000000000000000000000000000000000815260040162000d19906200219b565b60405180910390fd5b600062000d33826003015462000a3a565b90506000670de0b6b3a76400008462000d4d919062001fa9565b8262000d5a919062001fe1565b90508034101562000da2576040517f08c379a000000000000000000000000000000000000000000000000000000000815260040162000d999062002233565b60405180910390fd5b8383600301600082825462000db891906200202c565b925050819055508083600401600082825462000dd591906200202c565b925050819055506969e10de76676d0800000836003015410158062000e0657506729a2241af62c0000836004015410155b1562000e2a5760008360050160006101000a81548160ff0219169083151502179055505b8473ffffffffffffffffffffffffffffffffffffffff1663a9059cbb33866040518363ffffffff1660e01b815260040162000e6792919062002255565b6020604051808303816000875af115801562000e87573d6000803e3d6000fd5b505050506040513d601f19601f8201168201806040525081019062000ead9190620022b3565b508473ffffffffffffffffffffffffffffffffffffffff167fe3d4187f6ca4248660cc0ac8b8056515bac4a8132be2eca31d6d0cc170722a7e8560405162000ef6919062001393565b60405180910390a25050505050565b7f000000000000000000000000000000000000000000000000000000000000000081565b60008190506000600360008473ffffffffffffffffffffffffffffffffffffffff1673ffffffffffffffffffffffffffffffffffffffff1681526020019081526020016000206040518060c00160405290816000820160009054906101000a900473ffffffffffffffffffffffffffffffffffffffff1673ffffffffffffffffffffffffffffffffffffffff1673ffffffffffffffffffffffffffffffffffffffff16815260200160018201805462000fe29062001b37565b80601f0160208091040260200160405190810160405280929190818152602001828054620010109062001b37565b8015620010615780601f10620010355761010080835404028352916020019162001061565b820191906000526020600020905b8154815290600101906020018083116200104357829003601f168201915b505050505081526020016002820160009054906101000a900473ffffffffffffffffffffffffffffffffffffffff1673ffffffffffffffffffffffffffffffffffffffff1673ffffffffffffffffffffffffffffffffffffffff16815260200160038201548152602001600482015481526020016005820160009054906101000a900460ff1615151515815250509050600015158160a001511515146200113f576040517f08c379a0000000000000000000000000000000000000000000000000000000008152600401620011369062002335565b60405180910390fd5b8173ffffffffffffffffffffffffffffffffffffffff1663a9059cbb82604001518473ffffffffffffffffffffffffffffffffffffffff166370a08231306040518263ffffffff1660e01b81526004016200119b9190620017d4565b602060405180830381865afa158015620011b9573d6000803e3d6000fd5b505050506040513d601f19601f82011682018060405250810190620011df91906200236e565b6040518363ffffffff1660e01b8152600401620011fe92919062002255565b6020604051808303816000875af11580156200121e573d6000803e3d6000fd5b505050506040513d601f19601f82011682018060405250810190620012449190620022b3565b506000816040015173ffffffffffffffffffffffffffffffffffffffff168260800151604051620012759062001ef1565b60006040518083038185875af1925050503d8060008114620012b4576040519150601f19603f3d011682016040523d82523d6000602084013e620012b9565b606091505b505090508062001300576040517f08c379a0000000000000000000000000000000000000000000000000000000008152600401620012f79062001f58565b60405180910390fd5b50505050565b611a0880620023a183390190565b6040518060c00160405280600073ffffffffffffffffffffffffffffffffffffffff16815260200160608152602001600073ffffffffffffffffffffffffffffffffffffffff16815260200160008152602001600081526020016000151581525090565b6000819050919050565b6200138d8162001378565b82525050565b6000602082019050620013aa600083018462001382565b92915050565b6000604051905090565b600080fd5b600080fd5b600080fd5b600080fd5b6000601f19601f8301169050919050565b7f4e487b7100000000000000000000000000000000000000000000000000000000600052604160045260246000fd5b6200141982620013ce565b810181811067ffffffffffffffff821117156200143b576200143a620013df565b5b80604052505050565b600062001450620013b0565b90506200145e82826200140e565b919050565b600067ffffffffffffffff821115620014815762001480620013df565b5b6200148c82620013ce565b9050602081019050919050565b82818337600083830152505050565b6000620014bf620014b98462001463565b62001444565b905082815260208101848484011115620014de57620014dd620013c9565b5b620014eb84828562001499565b509392505050565b600082601f8301126200150b576200150a620013c4565b5b81356200151d848260208601620014a8565b91505092915050565b6000806040838503121562001540576200153f620013ba565b5b600083013567ffffffffffffffff811115620015615762001560620013bf565b5b6200156f85828601620014f3565b925050602083013567ffffffffffffffff811115620015935762001592620013bf565b5b620015a185828601620014f3565b9150509250929050565b620015b68162001378565b8114620015c257600080fd5b50565b600081359050620015d681620015ab565b92915050565b600060208284031215620015f557620015f4620013ba565b5b60006200160584828501620015c5565b91505092915050565b600073ffffffffffffffffffffffffffffffffffffffff82169050919050565b60006200163b826200160e565b9050919050565b6200164d816200162e565b82525050565b600081519050919050565b600082825260208201905092915050565b60005b838110156200168f57808201518184015260208101905062001672565b60008484015250505050565b6000620016a88262001653565b620016b481856200165e565b9350620016c68185602086016200166f565b620016d181620013ce565b840191505092915050565b620016e78162001378565b82525050565b60008115159050919050565b6200170481620016ed565b82525050565b600060c08301600083015162001724600086018262001642565b50602083015184820360208601526200173e82826200169b565b915050604083015162001755604086018262001642565b5060608301516200176a6060860182620016dc565b5060808301516200177f6080860182620016dc565b5060a08301516200179460a0860182620016f9565b508091505092915050565b60006020820190508181036000830152620017bb81846200170a565b905092915050565b620017ce816200162e565b82525050565b6000602082019050620017eb6000830184620017c3565b92915050565b620017fc816200162e565b81146200180857600080fd5b50565b6000813590506200181c81620017f1565b92915050565b6000602082840312156200183b576200183a620013ba565b5b60006200184b848285016200180b565b91505092915050565b600082825260208201905092915050565b6000620018728262001653565b6200187e818562001854565b9350620018908185602086016200166f565b6200189b81620013ce565b840191505092915050565b620018b181620016ed565b82525050565b600060c082019050620018ce6000830189620017c3565b8181036020830152620018e2818862001865565b9050620018f36040830187620017c3565b62001902606083018662001382565b62001911608083018562001382565b6200192060a0830184620018a6565b979650505050505050565b60008060408385031215620019455762001944620013ba565b5b600062001955858286016200180b565b92505060206200196885828601620015c5565b9150509250929050565b7f466163746f72793a2043726561746f7220666565206e6f74206d657400000000600082015250565b6000620019aa601c8362001854565b9150620019b78262001972565b602082019050919050565b60006020820190508181036000830152620019dd816200199b565b9050919050565b6000819050919050565b6000819050919050565b600062001a1962001a1362001a0d84620019e4565b620019ee565b62001378565b9050919050565b62001a2b81620019f8565b82525050565b600060808201905062001a486000830187620017c3565b818103602083015262001a5c818662001865565b9050818103604083015262001a72818562001865565b905062001a83606083018462001a20565b95945050505050565b7f4e487b7100000000000000000000000000000000000000000000000000000000600052601160045260246000fd5b600062001ac88262001378565b91507fffffffffffffffffffffffffffffffffffffffffffffffffffffffffffffffff820362001afd5762001afc62001a8c565b5b600182019050919050565b7f4e487b7100000000000000000000000000000000000000000000000000000000600052602260045260246000fd5b6000600282049050600182168062001b5057607f821691505b60208210810362001b665762001b6562001b08565b5b50919050565b60008190508160005260206000209050919050565b60006020601f8301049050919050565b600082821b905092915050565b60006008830262001bd07fffffffffffffffffffffffffffffffffffffffffffffffffffffffffffffffff8262001b91565b62001bdc868362001b91565b95508019841693508086168417925050509392505050565b600062001c1562001c0f62001c098462001378565b620019ee565b62001378565b9050919050565b6000819050919050565b62001c318362001bf4565b62001c4962001c408262001c1c565b84845462001b9e565b825550505050565b600090565b62001c6062001c51565b62001c6d81848462001c26565b505050565b5b8181101562001c955762001c8960008262001c56565b60018101905062001c73565b5050565b601f82111562001ce45762001cae8162001b6c565b62001cb98462001b81565b8101602085101562001cc9578190505b62001ce162001cd88562001b81565b83018262001c72565b50505b505050565b600082821c905092915050565b600062001d096000198460080262001ce9565b1980831691505092915050565b600062001d24838362001cf6565b9150826002028217905092915050565b62001d3f8262001653565b67ffffffffffffffff81111562001d5b5762001d5a620013df565b5b62001d67825462001b37565b62001d7482828562001c99565b600060209050601f83116001811462001dac576000841562001d97578287015190505b62001da3858262001d16565b86555062001e13565b601f19841662001dbc8662001b6c565b60005b8281101562001de65784890151825560018201915060208501945060208101905062001dbf565b8683101562001e06578489015162001e02601f89168262001cf6565b8355505b6001600288020188555050505b505050505050565b7f4e487b7100000000000000000000000000000000000000000000000000000000600052603260045260246000fd5b7f466163746f72793a204e6f74206f776e65720000000000000000000000000000600082015250565b600062001e8260128362001854565b915062001e8f8262001e4a565b602082019050919050565b6000602082019050818103600083015262001eb58162001e73565b9050919050565b600081905092915050565b50565b600062001ed960008362001ebc565b915062001ee68262001ec7565b600082019050919050565b600062001efe8262001eca565b9150819050919050565b7f466163746f72793a20455448207472616e73666572206661696c656400000000600082015250565b600062001f40601c8362001854565b915062001f4d8262001f08565b602082019050919050565b6000602082019050818103600083015262001f738162001f31565b9050919050565b7f4e487b7100000000000000000000000000000000000000000000000000000000600052601260045260246000fd5b600062001fb68262001378565b915062001fc38362001378565b92508262001fd65762001fd562001f7a565b5b828204905092915050565b600062001fee8262001378565b915062001ffb8362001378565b92508282026200200b8162001378565b9150828204841483151762002025576200202462001a8c565b5b5092915050565b6000620020398262001378565b9150620020468362001378565b925082820190508082111562002061576200206062001a8c565b5b92915050565b7f466163746f72793a20427579696e6720636c6f73656400000000000000000000600082015250565b60006200209f60168362001854565b9150620020ac8262002067565b602082019050919050565b60006020820190508181036000830152620020d28162002090565b9050919050565b7f466163746f72793a20416d6f756e7420746f6f206c6f77000000000000000000600082015250565b60006200211160178362001854565b91506200211e82620020d9565b602082019050919050565b60006020820190508181036000830152620021448162002102565b9050919050565b7f466163746f72793a20416d6f756e742065786365656465640000000000000000600082015250565b60006200218360188362001854565b915062002190826200214b565b602082019050919050565b60006020820190508181036000830152620021b68162002174565b9050919050565b7f466163746f72793a20496e73756666696369656e74204554482072656365697660008201527f6564000000000000000000000000000000000000000000000000000000000000602082015250565b60006200221b60228362001854565b91506200222882620021bd565b604082019050919050565b600060208201905081810360008301526200224e816200220c565b9050919050565b60006040820190506200226c6000830185620017c3565b6200227b602083018462001382565b9392505050565b6200228d81620016ed565b81146200229957600080fd5b50565b600081519050620022ad8162002282565b92915050565b600060208284031215620022cc57620022cb620013ba565b5b6000620022dc848285016200229c565b91505092915050565b7f466163746f72793a20546172676574206e6f7420726561636865640000000000600082015250565b60006200231d601b8362001854565b91506200232a82620022e5565b602082019050919050565b6000602082019050818103600083015262002350816200230e565b9050919050565b6000815190506200236881620015ab565b92915050565b600060208284031215620023875762002386620013ba565b5b6000620023978482850162002357565b9150509291505056fe60806040523480156200001157600080fd5b5060405162001a0838038062001a088339818101604052810190620000379190620005ed565b828281600390816200004a9190620008de565b5080600490816200005c9190620008de565b50505033600560006101000a81548173ffffffffffffffffffffffffffffffffffffffff021916908373ffffffffffffffffffffffffffffffffffffffff16021790555083600660006101000a81548173ffffffffffffffffffffffffffffffffffffffff021916908373ffffffffffffffffffffffffffffffffffffffff160217905550620000f33382620000fd60201b60201c565b5050505062000ac8565b600073ffffffffffffffffffffffffffffffffffffffff168273ffffffffffffffffffffffffffffffffffffffff1603620001725760006040517fec442f05000000000000000000000000000000000000000000000000000000008152600401620001699190620009d6565b60405180910390fd5b62000186600083836200018a60201b60201c565b5050565b600073ffffffffffffffffffffffffffffffffffffffff168373ffffffffffffffffffffffffffffffffffffffff1603620001e0578060026000828254620001d3919062000a22565b92505081905550620002b6565b60008060008573ffffffffffffffffffffffffffffffffffffffff1673ffffffffffffffffffffffffffffffffffffffff168152602001908152602001600020549050818110156200026f578381836040517fe450d38c000000000000000000000000000000000000000000000000000000008152600401620002669392919062000a6e565b60405180910390fd5b8181036000808673ffffffffffffffffffffffffffffffffffffffff1673ffffffffffffffffffffffffffffffffffffffff16815260200190815260200160002081905550505b600073ffffffffffffffffffffffffffffffffffffffff168273ffffffffffffffffffffffffffffffffffffffff16036200030157806002600082825403925050819055506200034e565b806000808473ffffffffffffffffffffffffffffffffffffffff1673ffffffffffffffffffffffffffffffffffffffff168152602001908152602001600020600082825401925050819055505b8173ffffffffffffffffffffffffffffffffffffffff168373ffffffffffffffffffffffffffffffffffffffff167fddf252ad1be2c89b69c2b068fc378daa952ba7f163c4a11628f55a4df523b3ef83604051620003ad919062000aab565b60405180910390a3505050565b6000604051905090565b600080fd5b600080fd5b600073ffffffffffffffffffffffffffffffffffffffff82169050919050565b6000620003fb82620003ce565b9050919050565b6200040d81620003ee565b81146200041957600080fd5b50565b6000815190506200042d8162000402565b92915050565b600080fd5b600080fd5b6000601f19601f8301169050919050565b7f4e487b7100000000000000000000000000000000000000000000000000000000600052604160045260246000fd5b62000488826200043d565b810181811067ffffffffffffffff82111715620004aa57620004a96200044e565b5b80604052505050565b6000620004bf620003ba565b9050620004cd82826200047d565b919050565b600067ffffffffffffffff821115620004f057620004ef6200044e565b5b620004fb826200043d565b9050602081019050919050565b60005b83811015620005285780820151818401526020810190506200050b565b60008484015250505050565b60006200054b6200054584620004d2565b620004b3565b9050828152602081018484840111156200056a576200056962000438565b5b6200057784828562000508565b509392505050565b600082601f83011262000597576200059662000433565b5b8151620005a984826020860162000534565b91505092915050565b6000819050919050565b620005c781620005b2565b8114620005d357600080fd5b50565b600081519050620005e781620005bc565b92915050565b600080600080608085870312156200060a5762000609620003c4565b5b60006200061a878288016200041c565b945050602085015167ffffffffffffffff8111156200063e576200063d620003c9565b5b6200064c878288016200057f565b935050604085015167ffffffffffffffff81111562000670576200066f620003c9565b5b6200067e878288016200057f565b92505060606200069187828801620005d6565b91505092959194509250565b600081519050919050565b7f4e487b7100000000000000000000000000000000000000000000000000000000600052602260045260246000fd5b60006002820490506001821680620006f057607f821691505b602082108103620007065762000705620006a8565b5b50919050565b60008190508160005260206000209050919050565b60006020601f8301049050919050565b600082821b905092915050565b600060088302620007707fffffffffffffffffffffffffffffffffffffffffffffffffffffffffffffffff8262000731565b6200077c868362000731565b95508019841693508086168417925050509392505050565b6000819050919050565b6000620007bf620007b9620007b384620005b2565b62000794565b620005b2565b9050919050565b6000819050919050565b620007db836200079e565b620007f3620007ea82620007c6565b8484546200073e565b825550505050565b600090565b6200080a620007fb565b62000817818484620007d0565b505050565b5b818110156200083f576200083360008262000800565b6001810190506200081d565b5050565b601f8211156200088e5762000858816200070c565b620008638462000721565b8101602085101562000873578190505b6200088b620008828562000721565b8301826200081c565b50505b505050565b600082821c905092915050565b6000620008b36000198460080262000893565b1980831691505092915050565b6000620008ce8383620008a0565b9150826002028217905092915050565b620008e9826200069d565b67ffffffffffffffff8111156200090557620009046200044e565b5b620009118254620006d7565b6200091e82828562000843565b600060209050601f83116001811462000956576000841562000941578287015190505b6200094d8582620008c0565b865550620009bd565b601f19841662000966866200070c565b60005b82811015620009905784890151825560018201915060208501945060208101905062000969565b86831015620009b05784890151620009ac601f891682620008a0565b8355505b6001600288020188555050505b505050505050565b620009d081620003ee565b82525050565b6000602082019050620009ed6000830184620009c5565b92915050565b7f4e487b7100000000000000000000000000000000000000000000000000000000600052601160045260246000fd5b600062000a2f82620005b2565b915062000a3c83620005b2565b925082820190508082111562000a575762000a56620009f3565b5b92915050565b62000a6881620005b2565b82525050565b600060608201905062000a856000830186620009c5565b62000a94602083018562000a5d565b62000aa3604083018462000a5d565b949350505050565b600060208201905062000ac2600083018462000a5d565b92915050565b610f308062000ad86000396000f3fe608060405234801561001057600080fd5b50600436106100a95760003560e01c8063313ce56711610071578063313ce5671461016857806370a08231146101865780638da5cb5b146101b657806395d89b41146101d4578063a9059cbb146101f2578063dd62ed3e14610222576100a9565b806302d05d3f146100ae57806306fdde03146100cc578063095ea7b3146100ea57806318160ddd1461011a57806323b872dd14610138575b600080fd5b6100b6610252565b6040516100c39190610af9565b60405180910390f35b6100d4610278565b6040516100e19190610ba4565b60405180910390f35b61010460048036038101906100ff9190610c2d565b61030a565b6040516101119190610c88565b60405180910390f35b61012261032d565b60405161012f9190610cb2565b60405180910390f35b610152600480360381019061014d9190610ccd565b610337565b60405161015f9190610c88565b60405180910390f35b610170610366565b60405161017d9190610d3c565b60405180910390f35b6101a0600480360381019061019b9190610d57565b61036f565b6040516101ad9190610cb2565b60405180910390f35b6101be6103b7565b6040516101cb9190610da5565b60405180910390f35b6101dc6103dd565b6040516101e99190610ba4565b60405180910390f35b61020c60048036038101906102079190610c2d565b61046f565b6040516102199190610c88565b60405180910390f35b61023c60048036038101906102379190610dc0565b610492565b6040516102499190610cb2565b60405180910390f35b600660009054906101000a900473ffffffffffffffffffffffffffffffffffffffff1681565b60606003805461028790610e2f565b80601f01602080910402602001604051908101604052809291908181526020018280546102b390610e2f565b80156103005780601f106102d557610100808354040283529160200191610300565b820191906000526020600020905b8154815290600101906020018083116102e357829003601f168201915b5050505050905090565b600080610315610519565b9050610322818585610521565b600191505092915050565b6000600254905090565b600080610342610519565b905061034f858285610533565b61035a8585856105c8565b60019150509392505050565b60006012905090565b60008060008373ffffffffffffffffffffffffffffffffffffffff1673ffffffffffffffffffffffffffffffffffffffff168152602001908152602001600020549050919050565b600560009054906101000a900473ffffffffffffffffffffffffffffffffffffffff1681565b6060600480546103ec90610e2f565b80601f016020809104026020016040519081016040528092919081815260200182805461041890610e2f565b80156104655780601f1061043a57610100808354040283529160200191610465565b820191906000526020600020905b81548152906001019060200180831161044857829003601f168201915b5050505050905090565b60008061047a610519565b90506104878185856105c8565b600191505092915050565b6000600160008473ffffffffffffffffffffffffffffffffffffffff1673ffffffffffffffffffffffffffffffffffffffff16815260200190815260200160002060008373ffffffffffffffffffffffffffffffffffffffff1673ffffffffffffffffffffffffffffffffffffffff16815260200190815260200160002054905092915050565b600033905090565b61052e83838360016106bc565b505050565b600061053f8484610492565b90507fffffffffffffffffffffffffffffffffffffffffffffffffffffffffffffffff8110156105c257818110156105b2578281836040517ffb8f41b20000000000000000000000000000000000000000000000000000000081526004016105a993929190610e60565b60405180910390fd5b6105c1848484840360006106bc565b5b50505050565b600073ffffffffffffffffffffffffffffffffffffffff168373ffffffffffffffffffffffffffffffffffffffff160361063a5760006040517f96c6fd1e0000000000000000000000000000000000000000000000000000000081526004016106319190610af9565b60405180910390fd5b600073ffffffffffffffffffffffffffffffffffffffff168273ffffffffffffffffffffffffffffffffffffffff16036106ac5760006040517fec442f050000000000000000000000000000000000000000000000000000000081526004016106a39190610af9565b60405180910390fd5b6106b7838383610893565b505050565b600073ffffffffffffffffffffffffffffffffffffffff168473ffffffffffffffffffffffffffffffffffffffff160361072e5760006040517fe602df050000000000000000000000000000000000000000000000000000000081526004016107259190610af9565b60405180910390fd5b600073ffffffffffffffffffffffffffffffffffffffff168373ffffffffffffffffffffffffffffffffffffffff16036107a05760006040517f94280d620000000000000000000000000000000000000000000000000000000081526004016107979190610af9565b60405180910390fd5b81600160008673ffffffffffffffffffffffffffffffffffffffff1673ffffffffffffffffffffffffffffffffffffffff16815260200190815260200160002060008573ffffffffffffffffffffffffffffffffffffffff1673ffffffffffffffffffffffffffffffffffffffff16815260200190815260200160002081905550801561088d578273ffffffffffffffffffffffffffffffffffffffff168473ffffffffffffffffffffffffffffffffffffffff167f8c5be1e5ebec7d5bd14f71427d1e84f3dd0314c0f7b2291e5b200ac8c7c3b925846040516108849190610cb2565b60405180910390a35b50505050565b600073ffffffffffffffffffffffffffffffffffffffff168373ffffffffffffffffffffffffffffffffffffffff16036108e55780600260008282546108d99190610ec6565b925050819055506109b8565b60008060008573ffffffffffffffffffffffffffffffffffffffff1673ffffffffffffffffffffffffffffffffffffffff16815260200190815260200160002054905081811015610971578381836040517fe450d38c00000000000000000000000000000000000000000000000000000000815260040161096893929190610e60565b60405180910390fd5b8181036000808673ffffffffffffffffffffffffffffffffffffffff1673ffffffffffffffffffffffffffffffffffffffff16815260200190815260200160002081905550505b600073ffffffffffffffffffffffffffffffffffffffff168273ffffffffffffffffffffffffffffffffffffffff1603610a015780600260008282540392505081905550610a4e565b806000808473ffffffffffffffffffffffffffffffffffffffff1673ffffffffffffffffffffffffffffffffffffffff168152602001908152602001600020600082825401925050819055505b8173ffffffffffffffffffffffffffffffffffffffff168373ffffffffffffffffffffffffffffffffffffffff167fddf252ad1be2c89b69c2b068fc378daa952ba7f163c4a11628f55a4df523b3ef83604051610aab9190610cb2565b60405180910390a3505050565b600073ffffffffffffffffffffffffffffffffffffffff82169050919050565b6000610ae382610ab8565b9050919050565b610af381610ad8565b82525050565b6000602082019050610b0e6000830184610aea565b92915050565b600081519050919050565b600082825260208201905092915050565b60005b83811015610b4e578082015181840152602081019050610b33565b60008484015250505050565b6000601f19601f8301169050919050565b6000610b7682610b14565b610b808185610b1f565b9350610b90818560208601610b30565b610b9981610b5a565b840191505092915050565b60006020820190508181036000830152610bbe8184610b6b565b905092915050565b600080fd5b610bd481610ad8565b8114610bdf57600080fd5b50565b600081359050610bf181610bcb565b92915050565b6000819050919050565b610c0a81610bf7565b8114610c1557600080fd5b50565b600081359050610c2781610c01565b92915050565b60008060408385031215610c4457610c43610bc6565b5b6000610c5285828601610be2565b9250506020610c6385828601610c18565b9150509250929050565b60008115159050919050565b610c8281610c6d565b82525050565b6000602082019050610c9d6000830184610c79565b92915050565b610cac81610bf7565b82525050565b6000602082019050610cc76000830184610ca3565b92915050565b600080600060608486031215610ce657610ce5610bc6565b5b6000610cf486828701610be2565b9350506020610d0586828701610be2565b9250506040610d1686828701610c18565b9150509250925092565b600060ff82169050919050565b610d3681610d20565b82525050565b6000602082019050610d516000830184610d2d565b92915050565b600060208284031215610d6d57610d6c610bc6565b5b6000610d7b84828501610be2565b91505092915050565b6000610d8f82610ab8565b9050919050565b610d9f81610d84565b82525050565b6000602082019050610dba6000830184610d96565b92915050565b60008060408385031215610dd757610dd6610bc6565b5b6000610de585828601610be2565b9250506020610df685828601610be2565b9150509250929050565b7f4e487b7100000000000000000000000000000000000000000000000000000000600052602260045260246000fd5b60006002820490506001821680610e4757607f821691505b602082108103610e5a57610e59610e00565b5b50919050565b6000606082019050610e756000830186610aea565b610e826020830185610ca3565b610e8f6040830184610ca3565b949350505050565b7f4e487b7100000000000000000000000000000000000000000000000000000000600052601160045260246000fd5b6000610ed182610bf7565b9150610edc83610bf7565b9250828201905080821115610ef457610ef3610e97565b5b9291505056fea26469706673582212200707b0b595d1eff49aed1bca7edaf9baeb3b69b83fc686ffd7c72a2dfe7eb26464736f6c63430008180033a26469706673582212209a742bd713aa8b2e6f1132bab8da7576d253bc29044621ed3ceab5f68930028c64736f6c63430008180033",
  "linkReferences": {},
  "deployedLinkReferences": {}
}